{
  "_format": "hh-sol-artifact-1",
  "contractName": "Transactions",
  "sourceName": "contracts/Transactions.sol",
  "abi": [
    {
      "anonymous": false,
      "inputs": [
        {
          "indexed": false,
          "internalType": "address",
          "name": "from",
          "type": "address"
        },
        {
          "indexed": false,
          "internalType": "address",
          "name": "to",
          "type": "address"
        },
        {
          "indexed": false,
          "internalType": "uint256",
          "name": "amount",
          "type": "uint256"
        },
        {
          "indexed": false,
          "internalType": "string",
          "name": "message",
          "type": "string"
        },
        {
          "indexed": false,
          "internalType": "uint256",
          "name": "timestamp",
          "type": "uint256"
        }
      ],
      "name": "Send",
      "type": "event"
    },
    {
      "inputs": [],
      "name": "count",
      "outputs": [
        {
          "internalType": "uint256",
          "name": "",
          "type": "uint256"
        }
      ],
      "stateMutability": "view",
      "type": "function"
    },
    {
      "inputs": [],
      "name": "getAll",
      "outputs": [
        {
          "components": [
            {
              "internalType": "uint256",
              "name": "id",
              "type": "uint256"
            },
            {
              "internalType": "address",
              "name": "sender",
              "type": "address"
            },
            {
              "internalType": "address",
              "name": "receiver",
              "type": "address"
            },
            {
              "internalType": "uint256",
              "name": "amount",
              "type": "uint256"
            },
            {
              "internalType": "string",
              "name": "message",
              "type": "string"
            },
            {
              "internalType": "uint256",
              "name": "timestamp",
              "type": "uint256"
            }
          ],
          "internalType": "struct Transactions.Transfer[]",
          "name": "",
          "type": "tuple[]"
        }
      ],
      "stateMutability": "view",
      "type": "function"
    },
    {
      "inputs": [
        {
          "internalType": "address payable",
          "name": "receiver",
          "type": "address"
        },
        {
          "internalType": "uint256",
          "name": "amount",
          "type": "uint256"
        },
        {
          "internalType": "string",
          "name": "message",
          "type": "string"
        }
      ],
      "name": "send",
      "outputs": [],
      "stateMutability": "nonpayable",
      "type": "function"
    }
  ],
  "bytecode": "0x608060405234801561001057600080fd5b50610d24806100206000396000f3fe608060405234801561001057600080fd5b50600436106100415760003560e01c806306661abd1461004657806353ed514314610064578063f49bb76b14610082575b600080fd5b61004e61009e565b60405161005b919061041b565b60405180910390f35b61006c6100aa565b6040516100799190610661565b60405180910390f35b61009c60048036038101906100979190610836565b610265565b005b60008080549050905090565b60606000805480602002602001604051908101604052809291908181526020016000905b8282101561025c57838290600052602060002090600602016040518060c0016040529081600082015481526020016001820160009054906101000a900473ffffffffffffffffffffffffffffffffffffffff1673ffffffffffffffffffffffffffffffffffffffff1673ffffffffffffffffffffffffffffffffffffffff1681526020016002820160009054906101000a900473ffffffffffffffffffffffffffffffffffffffff1673ffffffffffffffffffffffffffffffffffffffff1673ffffffffffffffffffffffffffffffffffffffff168152602001600382015481526020016004820180546101c1906108d4565b80601f01602080910402602001604051908101604052809291908181526020018280546101ed906108d4565b801561023a5780601f1061020f5761010080835404028352916020019161023a565b820191906000526020600020905b81548152906001019060200180831161021d57829003601f168201915b50505050508152602001600582015481525050815260200190600101906100ce565b50505050905090565b60006040518060c0016040528060016000805490506102849190610934565b81526020013373ffffffffffffffffffffffffffffffffffffffff1681526020018573ffffffffffffffffffffffffffffffffffffffff1681526020018481526020018381526020014281525090806001815401808255809150506001900390600052602060002090600602016000909190919091506000820151816000015560208201518160010160006101000a81548173ffffffffffffffffffffffffffffffffffffffff021916908373ffffffffffffffffffffffffffffffffffffffff16021790555060408201518160020160006101000a81548173ffffffffffffffffffffffffffffffffffffffff021916908373ffffffffffffffffffffffffffffffffffffffff1602179055506060820151816003015560808201518160040190816103b19190610b14565b5060a0820151816005015550507f01e74d977199c2d571c926551e4cca7a7c8385e751728d62e01d507a5f51743733848484426040516103f5959493929190610c94565b60405180910390a1505050565b6000819050919050565b61041581610402565b82525050565b6000602082019050610430600083018461040c565b92915050565b600081519050919050565b600082825260208201905092915050565b6000819050602082019050919050565b61046b81610402565b82525050565b600073ffffffffffffffffffffffffffffffffffffffff82169050919050565b600061049c82610471565b9050919050565b6104ac81610491565b82525050565b600081519050919050565b600082825260208201905092915050565b60005b838110156104ec5780820151818401526020810190506104d1565b60008484015250505050565b6000601f19601f8301169050919050565b6000610514826104b2565b61051e81856104bd565b935061052e8185602086016104ce565b610537816104f8565b840191505092915050565b600060c08301600083015161055a6000860182610462565b50602083015161056d60208601826104a3565b50604083015161058060408601826104a3565b5060608301516105936060860182610462565b50608083015184820360808601526105ab8282610509565b91505060a08301516105c060a0860182610462565b508091505092915050565b60006105d78383610542565b905092915050565b6000602082019050919050565b60006105f782610436565b6106018185610441565b93508360208202850161061385610452565b8060005b8581101561064f578484038952815161063085826105cb565b945061063b836105df565b925060208a01995050600181019050610617565b50829750879550505050505092915050565b6000602082019050818103600083015261067b81846105ec565b905092915050565b6000604051905090565b600080fd5b600080fd5b60006106a282610471565b9050919050565b6106b281610697565b81146106bd57600080fd5b50565b6000813590506106cf816106a9565b92915050565b6106de81610402565b81146106e957600080fd5b50565b6000813590506106fb816106d5565b92915050565b600080fd5b600080fd5b7f4e487b7100000000000000000000000000000000000000000000000000000000600052604160045260246000fd5b610743826104f8565b810181811067ffffffffffffffff821117156107625761076161070b565b5b80604052505050565b6000610775610683565b9050610781828261073a565b919050565b600067ffffffffffffffff8211156107a1576107a061070b565b5b6107aa826104f8565b9050602081019050919050565b82818337600083830152505050565b60006107d96107d484610786565b61076b565b9050828152602081018484840111156107f5576107f4610706565b5b6108008482856107b7565b509392505050565b600082601f83011261081d5761081c610701565b5b813561082d8482602086016107c6565b91505092915050565b60008060006060848603121561084f5761084e61068d565b5b600061085d868287016106c0565b935050602061086e868287016106ec565b925050604084013567ffffffffffffffff81111561088f5761088e610692565b5b61089b86828701610808565b9150509250925092565b7f4e487b7100000000000000000000000000000000000000000000000000000000600052602260045260246000fd5b600060028204905060018216806108ec57607f821691505b6020821081036108ff576108fe6108a5565b5b50919050565b7f4e487b7100000000000000000000000000000000000000000000000000000000600052601160045260246000fd5b600061093f82610402565b915061094a83610402565b925082820190508082111561096257610961610905565b5b92915050565b60008190508160005260206000209050919050565b60006020601f8301049050919050565b600082821b905092915050565b6000600883026109ca7fffffffffffffffffffffffffffffffffffffffffffffffffffffffffffffffff8261098d565b6109d4868361098d565b95508019841693508086168417925050509392505050565b6000819050919050565b6000610a11610a0c610a0784610402565b6109ec565b610402565b9050919050565b6000819050919050565b610a2b836109f6565b610a3f610a3782610a18565b84845461099a565b825550505050565b600090565b610a54610a47565b610a5f818484610a22565b505050565b5b81811015610a8357610a78600082610a4c565b600181019050610a65565b5050565b601f821115610ac857610a9981610968565b610aa28461097d565b81016020851015610ab1578190505b610ac5610abd8561097d565b830182610a64565b50505b505050565b600082821c905092915050565b6000610aeb60001984600802610acd565b1980831691505092915050565b6000610b048383610ada565b9150826002028217905092915050565b610b1d826104b2565b67ffffffffffffffff811115610b3657610b3561070b565b5b610b4082546108d4565b610b4b828285610a87565b600060209050601f831160018114610b7e5760008415610b6c578287015190505b610b768582610af8565b865550610bde565b601f198416610b8c86610968565b60005b82811015610bb457848901518255600182019150602085019450602081019050610b8f565b86831015610bd15784890151610bcd601f891682610ada565b8355505b6001600288020188555050505b505050505050565b610bef81610491565b82525050565b6000610c10610c0b610c0684610471565b6109ec565b610471565b9050919050565b6000610c2282610bf5565b9050919050565b6000610c3482610c17565b9050919050565b610c4481610c29565b82525050565b600082825260208201905092915050565b6000610c66826104b2565b610c708185610c4a565b9350610c808185602086016104ce565b610c89816104f8565b840191505092915050565b600060a082019050610ca96000830188610be6565b610cb66020830187610c3b565b610cc3604083018661040c565b8181036060830152610cd58185610c5b565b9050610ce4608083018461040c565b969550505050505056fea264697066735822122004aea406e059c10e87144e1b2a6d258c990bc9fc6c69e7607a2b7149697b3d4464736f6c63430008110033",
  "linkReferences": {},
  "deployedLinkReferences": {}
}